{
  "contractName": "CrudSmartContract",
  "abi": [
    {
      "inputs": [],
      "name": "nextId",
      "outputs": [
        {
          "internalType": "uint256",
          "name": "",
          "type": "uint256"
        }
      ],
      "stateMutability": "view",
      "type": "function",
      "constant": true
    },
    {
      "inputs": [
        {
          "internalType": "uint256",
          "name": "",
          "type": "uint256"
        }
      ],
      "name": "users",
      "outputs": [
        {
          "internalType": "uint256",
          "name": "id",
          "type": "uint256"
        },
        {
          "internalType": "string",
          "name": "name",
          "type": "string"
        }
      ],
      "stateMutability": "view",
      "type": "function",
      "constant": true
    },
    {
      "inputs": [
        {
          "internalType": "string",
          "name": "name",
          "type": "string"
        }
      ],
      "name": "create",
      "outputs": [],
      "stateMutability": "nonpayable",
      "type": "function"
    },
    {
      "inputs": [
        {
          "internalType": "uint256",
          "name": "id",
          "type": "uint256"
        }
      ],
      "name": "read",
      "outputs": [
        {
          "internalType": "uint256",
          "name": "",
          "type": "uint256"
        },
        {
          "internalType": "string",
          "name": "",
          "type": "string"
        }
      ],
      "stateMutability": "view",
      "type": "function",
      "constant": true
    },
    {
      "inputs": [
        {
          "internalType": "uint256",
          "name": "id",
          "type": "uint256"
        },
        {
          "internalType": "string",
          "name": "name",
          "type": "string"
        }
      ],
      "name": "update",
      "outputs": [],
      "stateMutability": "nonpayable",
      "type": "function"
    },
    {
      "inputs": [
        {
          "internalType": "uint256",
          "name": "id",
          "type": "uint256"
        }
      ],
      "name": "deleteId",
      "outputs": [],
      "stateMutability": "nonpayable",
      "type": "function"
    },
    {
      "inputs": [],
      "name": "showAll",
      "outputs": [
        {
          "internalType": "string",
          "name": "",
          "type": "string"
        }
      ],
      "stateMutability": "view",
      "type": "function",
      "constant": true
    }
  ],
  "bytecode": "0x60806040526001805534801561001457600080fd5b50610f62806100246000396000f3fe608060405234801561001057600080fd5b506004361061007d5760003560e01c80637f4bf3d91161005b5780637f4bf3d9146100ed578063b6a46b3b1461010b578063ed2e5a9714610127578063f745630f146101585761007d565b8063365b98b2146100825780633700bd57146100b357806361b8ce8c146100cf575b600080fd5b61009c600480360381019061009791906106ef565b610174565b6040516100aa9291906107bb565b60405180910390f35b6100cd60048036038101906100c891906106ef565b610230565b005b6100d761027e565b6040516100e491906107eb565b60405180910390f35b6100f5610284565b6040516101029190610806565b60405180910390f35b6101256004803603810190610120919061095d565b6103f4565b005b610141600480360381019061013c91906106ef565b610473565b60405161014f9291906107bb565b60405180910390f35b610172600480360381019061016d91906109a6565b610565565b005b6000818154811061018457600080fd5b90600052602060002090600202016000915090508060000154908060010180546101ad90610a31565b80601f01602080910402602001604051908101604052809291908181526020018280546101d990610a31565b80156102265780601f106101fb57610100808354040283529160200191610226565b820191906000526020600020905b81548152906001019060200180831161020957829003601f168201915b5050505050905082565b600061023b826105aa565b90506000818154811061025157610250610a62565b5b90600052602060002090600202016000808201600090556001820160006102789190610648565b50505050565b60015481565b60608060005b6000805490508110156103ec5760008082815481106102ac576102ab610a62565b5b906000526020600020906002020160010180546102c890610a31565b905011156103d9576000825111156103275781600082815481106102ef576102ee610a62565b5b9060005260206000209060020201600101604051602001610311929190610bb1565b60405160208183030381529060405291506103d8565b6000818154811061033b5761033a610a62565b5b9060005260206000209060020201600101805461035790610a31565b80601f016020809104026020016040519081016040528092919081815260200182805461038390610a31565b80156103d05780601f106103a5576101008083540402835291602001916103d0565b820191906000526020600020905b8154815290600101906020018083116103b357829003601f168201915b505050505091505b5b80806103e490610c0f565b91505061028a565b508091505090565b6000604051806040016040528060015481526020018381525090806001815401808255809150506001900390600052602060002090600202016000909190919091506000820151816000015560208201518160010190816104559190610dee565b5050506001600081548092919061046b90610c0f565b919050555050565b600060606000610482846105aa565b90506000818154811061049857610497610a62565b5b906000526020600020906002020160000154600082815481106104be576104bd610a62565b5b90600052602060002090600202016001018080546104db90610a31565b80601f016020809104026020016040519081016040528092919081815260200182805461050790610a31565b80156105545780601f1061052957610100808354040283529160200191610554565b820191906000526020600020905b81548152906001019060200180831161053757829003601f168201915b505050505090509250925050915091565b6000610570836105aa565b9050816000828154811061058757610586610a62565b5b906000526020600020906002020160010190816105a49190610dee565b50505050565b600080600090505b6000805490508110156106075782600082815481106105d4576105d3610a62565b5b906000526020600020906002020160000154036105f45780915050610643565b80806105ff90610c0f565b9150506105b2565b506040517f08c379a000000000000000000000000000000000000000000000000000000000815260040161063a90610f0c565b60405180910390fd5b919050565b50805461065490610a31565b6000825580601f106106665750610685565b601f0160209004906000526020600020908101906106849190610688565b5b50565b5b808211156106a1576000816000905550600101610689565b5090565b6000604051905090565b600080fd5b600080fd5b6000819050919050565b6106cc816106b9565b81146106d757600080fd5b50565b6000813590506106e9816106c3565b92915050565b600060208284031215610705576107046106af565b5b6000610713848285016106da565b91505092915050565b610725816106b9565b82525050565b600081519050919050565b600082825260208201905092915050565b60005b8381101561076557808201518184015260208101905061074a565b60008484015250505050565b6000601f19601f8301169050919050565b600061078d8261072b565b6107978185610736565b93506107a7818560208601610747565b6107b081610771565b840191505092915050565b60006040820190506107d0600083018561071c565b81810360208301526107e28184610782565b90509392505050565b6000602082019050610800600083018461071c565b92915050565b600060208201905081810360008301526108208184610782565b905092915050565b600080fd5b600080fd5b7f4e487b7100000000000000000000000000000000000000000000000000000000600052604160045260246000fd5b61086a82610771565b810181811067ffffffffffffffff8211171561088957610888610832565b5b80604052505050565b600061089c6106a5565b90506108a88282610861565b919050565b600067ffffffffffffffff8211156108c8576108c7610832565b5b6108d182610771565b9050602081019050919050565b82818337600083830152505050565b60006109006108fb846108ad565b610892565b90508281526020810184848401111561091c5761091b61082d565b5b6109278482856108de565b509392505050565b600082601f83011261094457610943610828565b5b81356109548482602086016108ed565b91505092915050565b600060208284031215610973576109726106af565b5b600082013567ffffffffffffffff811115610991576109906106b4565b5b61099d8482850161092f565b91505092915050565b600080604083850312156109bd576109bc6106af565b5b60006109cb858286016106da565b925050602083013567ffffffffffffffff8111156109ec576109eb6106b4565b5b6109f88582860161092f565b9150509250929050565b7f4e487b7100000000000000000000000000000000000000000000000000000000600052602260045260246000fd5b60006002820490506001821680610a4957607f821691505b602082108103610a5c57610a5b610a02565b5b50919050565b7f4e487b7100000000000000000000000000000000000000000000000000000000600052603260045260246000fd5b600081905092915050565b6000610aa78261072b565b610ab18185610a91565b9350610ac1818560208601610747565b80840191505092915050565b7f2c20000000000000000000000000000000000000000000000000000000000000600082015250565b6000610b03600283610a91565b9150610b0e82610acd565b600282019050919050565b60008190508160005260206000209050919050565b60008154610b3b81610a31565b610b458186610a91565b94506001821660008114610b605760018114610b7557610ba8565b60ff1983168652811515820286019350610ba8565b610b7e85610b19565b60005b83811015610ba057815481890152600182019150602081019050610b81565b838801955050505b50505092915050565b6000610bbd8285610a9c565b9150610bc882610af6565b9150610bd48284610b2e565b91508190509392505050565b7f4e487b7100000000000000000000000000000000000000000000000000000000600052601160045260246000fd5b6000610c1a826106b9565b91507fffffffffffffffffffffffffffffffffffffffffffffffffffffffffffffffff8203610c4c57610c4b610be0565b5b600182019050919050565b60006020601f8301049050919050565b600082821b905092915050565b600060088302610ca47fffffffffffffffffffffffffffffffffffffffffffffffffffffffffffffffff82610c67565b610cae8683610c67565b95508019841693508086168417925050509392505050565b6000819050919050565b6000610ceb610ce6610ce1846106b9565b610cc6565b6106b9565b9050919050565b6000819050919050565b610d0583610cd0565b610d19610d1182610cf2565b848454610c74565b825550505050565b600090565b610d2e610d21565b610d39818484610cfc565b505050565b5b81811015610d5d57610d52600082610d26565b600181019050610d3f565b5050565b601f821115610da257610d7381610b19565b610d7c84610c57565b81016020851015610d8b578190505b610d9f610d9785610c57565b830182610d3e565b50505b505050565b600082821c905092915050565b6000610dc560001984600802610da7565b1980831691505092915050565b6000610dde8383610db4565b9150826002028217905092915050565b610df78261072b565b67ffffffffffffffff811115610e1057610e0f610832565b5b610e1a8254610a31565b610e25828285610d61565b600060209050601f831160018114610e585760008415610e46578287015190505b610e508582610dd2565b865550610eb8565b601f198416610e6686610b19565b60005b82811015610e8e57848901518255600182019150602085019450602081019050610e69565b86831015610eab5784890151610ea7601f891682610db4565b8355505b6001600288020188555050505b505050505050565b7f5573657220646f65736e74206578697374000000000000000000000000000000600082015250565b6000610ef6601183610736565b9150610f0182610ec0565b602082019050919050565b60006020820190508181036000830152610f2581610ee9565b905091905056fea26469706673582212204de890cf8a590acf55b700ab84c86b9f0b240f8518ce5d17d8445b54521bb13364736f6c63430008130033",
  "immutableReferences": {},
  "source": "// SPDX-License-Identifier: MIT\npragma solidity ^0.8.19;\n\ncontract CrudSmartContract {\n    struct User {\n        uint id;\n        string name;\n    }\n    //array of users\n    User[] public users;\n    uint public nextId = 1;\n\n    function create(string memory name) public {\n        users.push(User(nextId, name));\n        //option 2. when array is having too many fields(key-value pair): users.push(User({nextId: nextId, name: name}))\n        //needing this to add new id user\n        nextId++;\n    }\n\n    function read(uint id) public view returns (uint, string memory) {\n        //find the position in the user array\n        uint i = find(id);\n        return (users[i].id, users[i].name);\n    }\n\n    function update(uint id, string memory name) public {\n        uint i = find(id);\n        users[i].name = name;\n    }\n\n    function deleteId(uint id) public {\n        uint i = find(id);\n        delete users[i];\n    }\n\n    //position of the user struct in the users array\n    function find(uint id) internal view returns (uint) {\n        for (uint i = 0; i < users.length; i++) {\n            if (users[i].id == id) {\n                return i;\n            }\n        }\n        revert(\"User doesnt exist\");\n    }\n\n    function showAll() public view returns (string memory) {\n        string memory allNames;\n\n        for (uint i = 0; i < users.length; i++) {\n            if (bytes(users[i].name).length > 0) {\n                // Check if the name is not empty\n                if (bytes(allNames).length > 0) {\n                    allNames = string(\n                        abi.encodePacked(allNames, \", \", users[i].name)\n                    );\n                } else {\n                    allNames = users[i].name;\n                }\n            }\n        }\n        return allNames;\n    }\n}\n",
  "sourcePath": "/Users/mariaso/Blockchain projects/crud-blockchain/crud-blockchain/contracts/CrudSmartContract.sol",
  "compiler": {
    "name": "solc",
    "version": "0.8.19+commit.7dd6d404.Emscripten.clang"
  },
  "schemaVersion": "3.4.16",
  "updatedAt": "2024-05-17T19:40:52.635Z",
  "networkType": "ethereum",
  "devdoc": {
    "kind": "dev",
    "methods": {},
    "version": 1
  },
  "userdoc": {
    "kind": "user",
    "methods": {},
    "version": 1
  }
}