{
  "contractName": "CrudSmartContract",
  "abi": [
    {
      "inputs": [],
      "name": "nextId",
      "outputs": [
        {
          "internalType": "uint256",
          "name": "",
          "type": "uint256"
        }
      ],
      "stateMutability": "view",
      "type": "function"
    },
    {
      "inputs": [
        {
          "internalType": "uint256",
          "name": "",
          "type": "uint256"
        }
      ],
      "name": "users",
      "outputs": [
        {
          "internalType": "uint256",
          "name": "id",
          "type": "uint256"
        },
        {
          "internalType": "string",
          "name": "name",
          "type": "string"
        }
      ],
      "stateMutability": "view",
      "type": "function"
    },
    {
      "inputs": [
        {
          "internalType": "string",
          "name": "name",
          "type": "string"
        }
      ],
      "name": "create",
      "outputs": [],
      "stateMutability": "nonpayable",
      "type": "function"
    },
    {
      "inputs": [
        {
          "internalType": "uint256",
          "name": "id",
          "type": "uint256"
        }
      ],
      "name": "read",
      "outputs": [
        {
          "internalType": "uint256",
          "name": "",
          "type": "uint256"
        },
        {
          "internalType": "string",
          "name": "",
          "type": "string"
        }
      ],
      "stateMutability": "view",
      "type": "function"
    },
    {
      "inputs": [
        {
          "internalType": "uint256",
          "name": "id",
          "type": "uint256"
        },
        {
          "internalType": "string",
          "name": "name",
          "type": "string"
        }
      ],
      "name": "update",
      "outputs": [],
      "stateMutability": "nonpayable",
      "type": "function"
    },
    {
      "inputs": [
        {
          "internalType": "uint256",
          "name": "id",
          "type": "uint256"
        }
      ],
      "name": "deleteId",
      "outputs": [],
      "stateMutability": "nonpayable",
      "type": "function"
    }
  ],
  "bytecode": "0x608060405234801561001057600080fd5b50610c77806100206000396000f3fe608060405234801561001057600080fd5b50600436106100625760003560e01c8063365b98b2146100675780633700bd571461009857806361b8ce8c146100b4578063b6a46b3b146100d2578063ed2e5a97146100ee578063f745630f1461011f575b600080fd5b610081600480360381019061007c9190610560565b61013b565b60405161008f92919061062c565b60405180910390f35b6100b260048036038101906100ad9190610560565b6101f7565b005b6100bc610237565b6040516100c9919061065c565b60405180910390f35b6100ec60048036038101906100e791906107ac565b61023d565b005b61010860048036038101906101039190610560565b6102bc565b60405161011692919061062c565b60405180910390f35b610139600480360381019061013491906107f5565b610431565b005b6000818154811061014b57600080fd5b906000526020600020906002020160009150905080600001549080600101805461017490610880565b80601f01602080910402602001604051908101604052809291908181526020018280546101a090610880565b80156101ed5780601f106101c2576101008083540402835291602001916101ed565b820191906000526020600020905b8154815290600101906020018083116101d057829003601f168201915b5050505050905082565b6000818154811061020b5761020a6108b1565b5b906000526020600020906002020160008082016000905560018201600061023291906104b9565b505050565b60015481565b60006040518060400160405280600154815260200183815250908060018154018082558091505060019003906000526020600020906002020160009091909190915060008201518160000155602082015181600101908161029e9190610a8c565b505050600160008154809291906102b490610b8d565b919050555050565b6000606060005b6000805490508110156103f05783600082815481106102e5576102e46108b1565b5b906000526020600020906002020160000154036103dd57600081815481106103105761030f6108b1565b5b90600052602060002090600202016000015460008281548110610336576103356108b1565b5b906000526020600020906002020160010180805461035390610880565b80601f016020809104026020016040519081016040528092919081815260200182805461037f90610880565b80156103cc5780601f106103a1576101008083540402835291602001916103cc565b820191906000526020600020905b8154815290600101906020018083116103af57829003601f168201915b50505050509050925092505061042c565b80806103e890610b8d565b9150506102c3565b506040517f08c379a000000000000000000000000000000000000000000000000000000000815260040161042390610c21565b60405180910390fd5b915091565b60005b6000805490508110156104b4578260008281548110610456576104556108b1565b5b906000526020600020906002020160000154036104a1578160008281548110610482576104816108b1565b5b9060005260206000209060020201600101908161049f9190610a8c565b505b80806104ac90610b8d565b915050610434565b505050565b5080546104c590610880565b6000825580601f106104d757506104f6565b601f0160209004906000526020600020908101906104f591906104f9565b5b50565b5b808211156105125760008160009055506001016104fa565b5090565b6000604051905090565b600080fd5b600080fd5b6000819050919050565b61053d8161052a565b811461054857600080fd5b50565b60008135905061055a81610534565b92915050565b60006020828403121561057657610575610520565b5b60006105848482850161054b565b91505092915050565b6105968161052a565b82525050565b600081519050919050565b600082825260208201905092915050565b60005b838110156105d65780820151818401526020810190506105bb565b60008484015250505050565b6000601f19601f8301169050919050565b60006105fe8261059c565b61060881856105a7565b93506106188185602086016105b8565b610621816105e2565b840191505092915050565b6000604082019050610641600083018561058d565b818103602083015261065381846105f3565b90509392505050565b6000602082019050610671600083018461058d565b92915050565b600080fd5b600080fd5b7f4e487b7100000000000000000000000000000000000000000000000000000000600052604160045260246000fd5b6106b9826105e2565b810181811067ffffffffffffffff821117156106d8576106d7610681565b5b80604052505050565b60006106eb610516565b90506106f782826106b0565b919050565b600067ffffffffffffffff82111561071757610716610681565b5b610720826105e2565b9050602081019050919050565b82818337600083830152505050565b600061074f61074a846106fc565b6106e1565b90508281526020810184848401111561076b5761076a61067c565b5b61077684828561072d565b509392505050565b600082601f83011261079357610792610677565b5b81356107a384826020860161073c565b91505092915050565b6000602082840312156107c2576107c1610520565b5b600082013567ffffffffffffffff8111156107e0576107df610525565b5b6107ec8482850161077e565b91505092915050565b6000806040838503121561080c5761080b610520565b5b600061081a8582860161054b565b925050602083013567ffffffffffffffff81111561083b5761083a610525565b5b6108478582860161077e565b9150509250929050565b7f4e487b7100000000000000000000000000000000000000000000000000000000600052602260045260246000fd5b6000600282049050600182168061089857607f821691505b6020821081036108ab576108aa610851565b5b50919050565b7f4e487b7100000000000000000000000000000000000000000000000000000000600052603260045260246000fd5b60008190508160005260206000209050919050565b60006020601f8301049050919050565b600082821b905092915050565b6000600883026109427fffffffffffffffffffffffffffffffffffffffffffffffffffffffffffffffff82610905565b61094c8683610905565b95508019841693508086168417925050509392505050565b6000819050919050565b600061098961098461097f8461052a565b610964565b61052a565b9050919050565b6000819050919050565b6109a38361096e565b6109b76109af82610990565b848454610912565b825550505050565b600090565b6109cc6109bf565b6109d781848461099a565b505050565b5b818110156109fb576109f06000826109c4565b6001810190506109dd565b5050565b601f821115610a4057610a11816108e0565b610a1a846108f5565b81016020851015610a29578190505b610a3d610a35856108f5565b8301826109dc565b50505b505050565b600082821c905092915050565b6000610a6360001984600802610a45565b1980831691505092915050565b6000610a7c8383610a52565b9150826002028217905092915050565b610a958261059c565b67ffffffffffffffff811115610aae57610aad610681565b5b610ab88254610880565b610ac38282856109ff565b600060209050601f831160018114610af65760008415610ae4578287015190505b610aee8582610a70565b865550610b56565b601f198416610b04866108e0565b60005b82811015610b2c57848901518255600182019150602085019450602081019050610b07565b86831015610b495784890151610b45601f891682610a52565b8355505b6001600288020188555050505b505050505050565b7f4e487b7100000000000000000000000000000000000000000000000000000000600052601160045260246000fd5b6000610b988261052a565b91507fffffffffffffffffffffffffffffffffffffffffffffffffffffffffffffffff8203610bca57610bc9610b5e565b5b600182019050919050565b7f55736572206e6f7420666f756e64000000000000000000000000000000000000600082015250565b6000610c0b600e836105a7565b9150610c1682610bd5565b602082019050919050565b60006020820190508181036000830152610c3a81610bfe565b905091905056fea264697066735822122037188f77eff83523c47cfe69dca4875296f675da85dff65ce42ec0ae75ffc35164736f6c63430008130033",
  "immutableReferences": {},
  "source": "// SPDX-License-Identifier: MIT\npragma solidity ^0.8.19;\n\ncontract CrudSmartContract {\n    struct User {\n        uint id;\n        string name;\n    }\n    //array of users\n    User[] public users;\n    uint public nextId;\n\n    function create(string memory name) public {\n        users.push(User(nextId, name));\n        //option 2. when array is having too many fields: users.push(User({nextId: nextId, name: name}))\n        //needing this to add new id user\n        nextId++;\n    }\n\n    function read(uint id) view public returns(uint, string memory) {\n     for (uint i = 0; i < users.length; i++) {\n        if (users[i].id == id) {\n            return(users[i].id, users[i].name);\n        }\n    }\n    revert(\"User not found\");\n}\n  \n\n    function update(uint id, string memory name) public {\n        for (uint i = 0; i < users.length; i++) {\n            if (users[i].id == id) {\n                users[i].name = name;\n            }\n        }\n    }\n\n    function deleteId(uint id) public {\n        delete users[id];\n    }\n}\n",
  "sourcePath": "/Users/mariaso/Blockchain projects/crud-blockchain/crud-blockchain/contracts/CrudSmartContract.sol",
  "compiler": {
    "name": "solc",
    "version": "0.8.19+commit.7dd6d404.Emscripten.clang"
  },
  "schemaVersion": "3.4.16",
  "updatedAt": "2024-04-21T21:57:12.426Z",
  "devdoc": {
    "kind": "dev",
    "methods": {},
    "version": 1
  },
  "userdoc": {
    "kind": "user",
    "methods": {},
    "version": 1
  }
}