{
  "contractName": "CrudSmartContract",
  "abi": [
    {
      "inputs": [],
      "name": "nextId",
      "outputs": [
        {
          "internalType": "uint256",
          "name": "",
          "type": "uint256"
        }
      ],
      "stateMutability": "view",
      "type": "function"
    },
    {
      "inputs": [
        {
          "internalType": "uint256",
          "name": "",
          "type": "uint256"
        }
      ],
      "name": "users",
      "outputs": [
        {
          "internalType": "uint256",
          "name": "id",
          "type": "uint256"
        },
        {
          "internalType": "string",
          "name": "name",
          "type": "string"
        }
      ],
      "stateMutability": "view",
      "type": "function"
    },
    {
      "inputs": [
        {
          "internalType": "string",
          "name": "name",
          "type": "string"
        }
      ],
      "name": "create",
      "outputs": [],
      "stateMutability": "nonpayable",
      "type": "function"
    },
    {
      "inputs": [
        {
          "internalType": "uint256",
          "name": "id",
          "type": "uint256"
        }
      ],
      "name": "read",
      "outputs": [
        {
          "internalType": "uint256",
          "name": "",
          "type": "uint256"
        },
        {
          "internalType": "string",
          "name": "",
          "type": "string"
        }
      ],
      "stateMutability": "view",
      "type": "function"
    },
    {
      "inputs": [
        {
          "internalType": "uint256",
          "name": "id",
          "type": "uint256"
        },
        {
          "internalType": "string",
          "name": "name",
          "type": "string"
        }
      ],
      "name": "update",
      "outputs": [],
      "stateMutability": "nonpayable",
      "type": "function"
    },
    {
      "inputs": [
        {
          "internalType": "uint256",
          "name": "id",
          "type": "uint256"
        }
      ],
      "name": "deleteId",
      "outputs": [],
      "stateMutability": "nonpayable",
      "type": "function"
    }
  ],
  "bytecode": "0x608060405234801561000f575f80fd5b50610c048061001d5f395ff3fe608060405234801561000f575f80fd5b5060043610610060575f3560e01c8063365b98b2146100645780633700bd571461009557806361b8ce8c146100b1578063b6a46b3b146100cf578063ed2e5a97146100eb578063f745630f1461011c575b5f80fd5b61007e60048036038101906100799190610524565b610138565b60405161008c9291906105e8565b60405180910390f35b6100af60048036038101906100aa9190610524565b6101ec565b005b6100b9610226565b6040516100c69190610616565b60405180910390f35b6100e960048036038101906100e4919061075b565b61022c565b005b61010560048036038101906101009190610524565b6102a4565b6040516101139291906105e8565b60405180910390f35b610136600480360381019061013191906107a2565b610409565b005b5f8181548110610146575f80fd5b905f5260205f2090600202015f91509050805f01549080600101805461016b90610829565b80601f016020809104026020016040519081016040528092919081815260200182805461019790610829565b80156101e25780601f106101b9576101008083540402835291602001916101e2565b820191905f5260205f20905b8154815290600101906020018083116101c557829003601f168201915b5050505050905082565b5f81815481106101ff576101fe610859565b5b905f5260205f2090600202015f8082015f9055600182015f6102219190610488565b505050565b60015481565b5f6040518060400160405280600154815260200183815250908060018154018082558091505060019003905f5260205f2090600202015f909190919091505f820151815f015560208201518160010190816102879190610a23565b50505060015f81548092919061029c90610b1f565b919050555050565b5f60605f5b5f805490508110156103c857835f82815481106102c9576102c8610859565b5b905f5260205f2090600202015f0154036103b5575f81815481106102f0576102ef610859565b5b905f5260205f2090600202015f01545f828154811061031257610311610859565b5b905f5260205f20906002020160010180805461032d90610829565b80601f016020809104026020016040519081016040528092919081815260200182805461035990610829565b80156103a45780601f1061037b576101008083540402835291602001916103a4565b820191905f5260205f20905b81548152906001019060200180831161038757829003601f168201915b505050505090509250925050610404565b80806103c090610b1f565b9150506102a9565b506040517f08c379a00000000000000000000000000000000000000000000000000000000081526004016103fb90610bb0565b60405180910390fd5b915091565b5f5b5f8054905081101561048357825f828154811061042b5761042a610859565b5b905f5260205f2090600202015f01540361047057815f828154811061045357610452610859565b5b905f5260205f209060020201600101908161046e9190610a23565b505b808061047b90610b1f565b91505061040b565b505050565b50805461049490610829565b5f825580601f106104a557506104c2565b601f0160209004905f5260205f20908101906104c191906104c5565b5b50565b5b808211156104dc575f815f9055506001016104c6565b5090565b5f604051905090565b5f80fd5b5f80fd5b5f819050919050565b610503816104f1565b811461050d575f80fd5b50565b5f8135905061051e816104fa565b92915050565b5f60208284031215610539576105386104e9565b5b5f61054684828501610510565b91505092915050565b610558816104f1565b82525050565b5f81519050919050565b5f82825260208201905092915050565b5f5b8381101561059557808201518184015260208101905061057a565b5f8484015250505050565b5f601f19601f8301169050919050565b5f6105ba8261055e565b6105c48185610568565b93506105d4818560208601610578565b6105dd816105a0565b840191505092915050565b5f6040820190506105fb5f83018561054f565b818103602083015261060d81846105b0565b90509392505050565b5f6020820190506106295f83018461054f565b92915050565b5f80fd5b5f80fd5b7f4e487b71000000000000000000000000000000000000000000000000000000005f52604160045260245ffd5b61066d826105a0565b810181811067ffffffffffffffff8211171561068c5761068b610637565b5b80604052505050565b5f61069e6104e0565b90506106aa8282610664565b919050565b5f67ffffffffffffffff8211156106c9576106c8610637565b5b6106d2826105a0565b9050602081019050919050565b828183375f83830152505050565b5f6106ff6106fa846106af565b610695565b90508281526020810184848401111561071b5761071a610633565b5b6107268482856106df565b509392505050565b5f82601f8301126107425761074161062f565b5b81356107528482602086016106ed565b91505092915050565b5f602082840312156107705761076f6104e9565b5b5f82013567ffffffffffffffff81111561078d5761078c6104ed565b5b6107998482850161072e565b91505092915050565b5f80604083850312156107b8576107b76104e9565b5b5f6107c585828601610510565b925050602083013567ffffffffffffffff8111156107e6576107e56104ed565b5b6107f28582860161072e565b9150509250929050565b7f4e487b71000000000000000000000000000000000000000000000000000000005f52602260045260245ffd5b5f600282049050600182168061084057607f821691505b602082108103610853576108526107fc565b5b50919050565b7f4e487b71000000000000000000000000000000000000000000000000000000005f52603260045260245ffd5b5f819050815f5260205f209050919050565b5f6020601f8301049050919050565b5f82821b905092915050565b5f600883026108e27fffffffffffffffffffffffffffffffffffffffffffffffffffffffffffffffff826108a7565b6108ec86836108a7565b95508019841693508086168417925050509392505050565b5f819050919050565b5f61092761092261091d846104f1565b610904565b6104f1565b9050919050565b5f819050919050565b6109408361090d565b61095461094c8261092e565b8484546108b3565b825550505050565b5f90565b61096861095c565b610973818484610937565b505050565b5b818110156109965761098b5f82610960565b600181019050610979565b5050565b601f8211156109db576109ac81610886565b6109b584610898565b810160208510156109c4578190505b6109d86109d085610898565b830182610978565b50505b505050565b5f82821c905092915050565b5f6109fb5f19846008026109e0565b1980831691505092915050565b5f610a1383836109ec565b9150826002028217905092915050565b610a2c8261055e565b67ffffffffffffffff811115610a4557610a44610637565b5b610a4f8254610829565b610a5a82828561099a565b5f60209050601f831160018114610a8b575f8415610a79578287015190505b610a838582610a08565b865550610aea565b601f198416610a9986610886565b5f5b82811015610ac057848901518255600182019150602085019450602081019050610a9b565b86831015610add5784890151610ad9601f8916826109ec565b8355505b6001600288020188555050505b505050505050565b7f4e487b71000000000000000000000000000000000000000000000000000000005f52601160045260245ffd5b5f610b29826104f1565b91507fffffffffffffffffffffffffffffffffffffffffffffffffffffffffffffffff8203610b5b57610b5a610af2565b5b600182019050919050565b7f55736572206e6f7420666f756e640000000000000000000000000000000000005f82015250565b5f610b9a600e83610568565b9150610ba582610b66565b602082019050919050565b5f6020820190508181035f830152610bc781610b8e565b905091905056fea2646970667358221220cd6041b191dd4ed8df51b0d162cfafa7a5ccc4cc608d4dc8698e30a33b7a736d64736f6c63430008150033",
  "immutableReferences": {},
  "source": "// SPDX-License-Identifier: MIT\npragma solidity ^0.8.19;\n\ncontract CrudSmartContract {\n    struct User {\n        uint id;\n        string name;\n    }\n    //array of users\n    User[] public users;\n    uint public nextId;\n\n    function create(string memory name) public {\n        users.push(User(nextId, name));\n        //option 2. when array is having too many fields: users.push(User({nextId: nextId, name: name}))\n        //needing this to add new id user\n        nextId++;\n    }\n\n    function read(uint id) view public returns(uint, string memory) {\n     for (uint i = 0; i < users.length; i++) {\n        if (users[i].id == id) {\n            return(users[i].id, users[i].name);\n        }\n    }\n    revert(\"User not found\");\n}\n  \n\n    function update(uint id, string memory name) public {\n        for (uint i = 0; i < users.length; i++) {\n            if (users[i].id == id) {\n                users[i].name = name;\n            }\n        }\n    }\n\n    function deleteId(uint id) public {\n        delete users[id];\n    }\n}\n",
  "sourcePath": "/Users/mariaso/Blockchain projects/crud-blockchain/crud-blockchain/contracts/CrudSmartContract.sol",
  "compiler": {
    "name": "solc",
    "version": "0.8.21+commit.d9974bed.Emscripten.clang"
  },
  "schemaVersion": "3.4.16",
  "updatedAt": "2024-04-21T21:28:47.715Z",
  "devdoc": {
    "kind": "dev",
    "methods": {},
    "version": 1
  },
  "userdoc": {
    "kind": "user",
    "methods": {},
    "version": 1
  }
}